{
  "contractName": "NFTMint",
  "abi": [
    {
      "inputs": [],
      "stateMutability": "nonpayable",
      "type": "constructor"
    },
    {
      "anonymous": false,
      "inputs": [
        {
          "indexed": true,
          "internalType": "address",
          "name": "owner",
          "type": "address"
        },
        {
          "indexed": true,
          "internalType": "address",
          "name": "approved",
          "type": "address"
        },
        {
          "indexed": true,
          "internalType": "uint256",
          "name": "tokenId",
          "type": "uint256"
        }
      ],
      "name": "Approval",
      "type": "event"
    },
    {
      "anonymous": false,
      "inputs": [
        {
          "indexed": true,
          "internalType": "address",
          "name": "owner",
          "type": "address"
        },
        {
          "indexed": true,
          "internalType": "address",
          "name": "operator",
          "type": "address"
        },
        {
          "indexed": false,
          "internalType": "bool",
          "name": "approved",
          "type": "bool"
        }
      ],
      "name": "ApprovalForAll",
      "type": "event"
    },
    {
      "anonymous": false,
      "inputs": [
        {
          "indexed": false,
          "internalType": "uint256",
          "name": "index",
          "type": "uint256"
        }
      ],
      "name": "ProvideIndex",
      "type": "event"
    },
    {
      "anonymous": false,
      "inputs": [
        {
          "indexed": true,
          "internalType": "address",
          "name": "from",
          "type": "address"
        },
        {
          "indexed": true,
          "internalType": "address",
          "name": "to",
          "type": "address"
        },
        {
          "indexed": true,
          "internalType": "uint256",
          "name": "tokenId",
          "type": "uint256"
        }
      ],
      "name": "Transfer",
      "type": "event"
    },
    {
      "inputs": [
        {
          "internalType": "address",
          "name": "to",
          "type": "address"
        },
        {
          "internalType": "uint256",
          "name": "tokenId",
          "type": "uint256"
        }
      ],
      "name": "approve",
      "outputs": [],
      "stateMutability": "nonpayable",
      "type": "function"
    },
    {
      "inputs": [
        {
          "internalType": "address",
          "name": "owner",
          "type": "address"
        }
      ],
      "name": "balanceOf",
      "outputs": [
        {
          "internalType": "uint256",
          "name": "",
          "type": "uint256"
        }
      ],
      "stateMutability": "view",
      "type": "function",
      "constant": true
    },
    {
      "inputs": [],
      "name": "color",
      "outputs": [
        {
          "internalType": "string",
          "name": "",
          "type": "string"
        }
      ],
      "stateMutability": "view",
      "type": "function",
      "constant": true
    },
    {
      "inputs": [],
      "name": "currentTotal",
      "outputs": [
        {
          "internalType": "uint256",
          "name": "",
          "type": "uint256"
        }
      ],
      "stateMutability": "view",
      "type": "function",
      "constant": true
    },
    {
      "inputs": [
        {
          "internalType": "uint256",
          "name": "tokenId",
          "type": "uint256"
        }
      ],
      "name": "getApproved",
      "outputs": [
        {
          "internalType": "address",
          "name": "",
          "type": "address"
        }
      ],
      "stateMutability": "view",
      "type": "function",
      "constant": true
    },
    {
      "inputs": [
        {
          "internalType": "address",
          "name": "owner",
          "type": "address"
        },
        {
          "internalType": "address",
          "name": "operator",
          "type": "address"
        }
      ],
      "name": "isApprovedForAll",
      "outputs": [
        {
          "internalType": "bool",
          "name": "",
          "type": "bool"
        }
      ],
      "stateMutability": "view",
      "type": "function",
      "constant": true
    },
    {
      "inputs": [],
      "name": "maximumSupply",
      "outputs": [
        {
          "internalType": "uint256",
          "name": "",
          "type": "uint256"
        }
      ],
      "stateMutability": "view",
      "type": "function",
      "constant": true
    },
    {
      "inputs": [],
      "name": "mintPrice",
      "outputs": [
        {
          "internalType": "uint256",
          "name": "",
          "type": "uint256"
        }
      ],
      "stateMutability": "view",
      "type": "function",
      "constant": true
    },
    {
      "inputs": [],
      "name": "name",
      "outputs": [
        {
          "internalType": "string",
          "name": "",
          "type": "string"
        }
      ],
      "stateMutability": "view",
      "type": "function",
      "constant": true
    },
    {
      "inputs": [
        {
          "internalType": "uint256",
          "name": "tokenId",
          "type": "uint256"
        }
      ],
      "name": "ownerOf",
      "outputs": [
        {
          "internalType": "address",
          "name": "",
          "type": "address"
        }
      ],
      "stateMutability": "view",
      "type": "function",
      "constant": true
    },
    {
      "inputs": [
        {
          "internalType": "address",
          "name": "from",
          "type": "address"
        },
        {
          "internalType": "address",
          "name": "to",
          "type": "address"
        },
        {
          "internalType": "uint256",
          "name": "tokenId",
          "type": "uint256"
        }
      ],
      "name": "safeTransferFrom",
      "outputs": [],
      "stateMutability": "nonpayable",
      "type": "function"
    },
    {
      "inputs": [
        {
          "internalType": "address",
          "name": "from",
          "type": "address"
        },
        {
          "internalType": "address",
          "name": "to",
          "type": "address"
        },
        {
          "internalType": "uint256",
          "name": "tokenId",
          "type": "uint256"
        },
        {
          "internalType": "bytes",
          "name": "_data",
          "type": "bytes"
        }
      ],
      "name": "safeTransferFrom",
      "outputs": [],
      "stateMutability": "nonpayable",
      "type": "function"
    },
    {
      "inputs": [
        {
          "internalType": "address",
          "name": "operator",
          "type": "address"
        },
        {
          "internalType": "bool",
          "name": "approved",
          "type": "bool"
        }
      ],
      "name": "setApprovalForAll",
      "outputs": [],
      "stateMutability": "nonpayable",
      "type": "function"
    },
    {
      "inputs": [
        {
          "internalType": "bytes4",
          "name": "interfaceId",
          "type": "bytes4"
        }
      ],
      "name": "supportsInterface",
      "outputs": [
        {
          "internalType": "bool",
          "name": "",
          "type": "bool"
        }
      ],
      "stateMutability": "view",
      "type": "function",
      "constant": true
    },
    {
      "inputs": [],
      "name": "symbol",
      "outputs": [
        {
          "internalType": "string",
          "name": "",
          "type": "string"
        }
      ],
      "stateMutability": "view",
      "type": "function",
      "constant": true
    },
    {
      "inputs": [
        {
          "internalType": "uint256",
          "name": "tokenId",
          "type": "uint256"
        }
      ],
      "name": "tokenURI",
      "outputs": [
        {
          "internalType": "string",
          "name": "",
          "type": "string"
        }
      ],
      "stateMutability": "view",
      "type": "function",
      "constant": true
    },
    {
      "inputs": [
        {
          "internalType": "address",
          "name": "from",
          "type": "address"
        },
        {
          "internalType": "address",
          "name": "to",
          "type": "address"
        },
        {
          "internalType": "uint256",
          "name": "tokenId",
          "type": "uint256"
        }
      ],
      "name": "transferFrom",
      "outputs": [],
      "stateMutability": "nonpayable",
      "type": "function"
    },
    {
      "inputs": [],
      "name": "getMintIndex",
      "outputs": [
        {
          "internalType": "uint256",
          "name": "",
          "type": "uint256"
        }
      ],
      "stateMutability": "view",
      "type": "function",
      "constant": true
    },
    {
      "inputs": [],
      "name": "generateMintIndex",
      "outputs": [],
      "stateMutability": "nonpayable",
      "type": "function"
    },
    {
      "inputs": [],
      "name": "getUsedNFTColors",
      "outputs": [
        {
          "internalType": "string[]",
          "name": "",
          "type": "string[]"
        }
      ],
      "stateMutability": "view",
      "type": "function",
      "constant": true
    },
    {
      "inputs": [
        {
          "internalType": "address",
          "name": "user",
          "type": "address"
        },
        {
          "internalType": "string",
          "name": "_uri",
          "type": "string"
        }
      ],
      "name": "mint",
      "outputs": [
        {
          "internalType": "uint256",
          "name": "",
          "type": "uint256"
        }
      ],
      "stateMutability": "nonpayable",
      "type": "function"
    }
  ],
  "bytecode": "0x60806040526706f05b59d3b200006007553480156200001d57600080fd5b506040518060400160405280600c81526020017f436f6c6f726564546f6b656e00000000000000000000000000000000000000008152506040518060400160405280600381526020017f43544b00000000000000000000000000000000000000000000000000000000008152508160009080519060200190620000a29291906200043e565b508060019080519060200190620000bb9291906200043e565b5050506040518060400160405280600381526020017f4e494c0000000000000000000000000000000000000000000000000000000000815250600c90805190602001906200010b9291906200043e565b506000600b81905550600a80819055506000600d8190555060006040518061014001604052806040518060400160405280600381526020017f726564000000000000000000000000000000000000000000000000000000000081525081526020016040518060400160405280600481526020017f626c75650000000000000000000000000000000000000000000000000000000081525081526020016040518060400160405280600581526020017f677265656e00000000000000000000000000000000000000000000000000000081525081526020016040518060400160405280600681526020017f707572706c65000000000000000000000000000000000000000000000000000081525081526020016040518060400160405280600681526020017f79656c6c6f77000000000000000000000000000000000000000000000000000081525081526020016040518060400160405280600681526020017f6f72616e6765000000000000000000000000000000000000000000000000000081525081526020016040518060400160405280600481526020017f70696e6b0000000000000000000000000000000000000000000000000000000081525081526020016040518060400160405280600581526020017f626c61636b00000000000000000000000000000000000000000000000000000081525081526020016040518060400160405280600581526020017f776869746500000000000000000000000000000000000000000000000000000081525081526020016040518060400160405280600581526020017f62726f776e000000000000000000000000000000000000000000000000000000815250815250905060005b600a811015620003e6578181600a8110620003a257620003a1620004ee565b5b6020020151600960008381526020019081526020016000209080519060200190620003cf9291906200043e565b508080620003dd9062000556565b91505062000382565b5060005b600a811015620004365760006008600083815260200190815260200160002060006101000a81548160ff02191690831515021790555080806200042d9062000556565b915050620003ea565b505062000607565b8280546200044c90620005d2565b90600052602060002090601f016020900481019282620004705760008555620004bc565b82601f106200048b57805160ff1916838001178555620004bc565b82800160010185558215620004bc579182015b82811115620004bb5782518255916020019190600101906200049e565b5b509050620004cb9190620004cf565b5090565b5b80821115620004ea576000816000905550600101620004d0565b5090565b7f4e487b7100000000000000000000000000000000000000000000000000000000600052603260045260246000fd5b7f4e487b7100000000000000000000000000000000000000000000000000000000600052601160045260246000fd5b6000819050919050565b600062000563826200054c565b91507fffffffffffffffffffffffffffffffffffffffffffffffffffffffffffffffff82036200059857620005976200051d565b5b600182019050919050565b7f4e487b7100000000000000000000000000000000000000000000000000000000600052602260045260246000fd5b60006002820490506001821680620005eb57607f821691505b602082108103620006015762000600620005a3565b5b50919050565b61322680620006176000396000f3fe608060405234801561001057600080fd5b50600436106101375760003560e01c80636817c76c116100b8578063a22cb4651161007c578063a22cb4651461032c578063b88d4fde14610348578063c87b56dd14610364578063cf08fed514610394578063d0def521146103b2578063e985e9c5146103e257610137565b80636817c76c1461029857806370a08231146102b65780637d706e17146102e65780638f74fef4146102f057806395d89b411461030e57610137565b806323b872dd116100ff57806323b872dd146101f457806330cbc145146102105780633da8bfc91461022e57806342842e0e1461024c5780636352211e1461026857610137565b806301ffc9a71461013c5780630480e58b1461016c57806306fdde031461018a578063081812fc146101a8578063095ea7b3146101d8575b600080fd5b61015660048036038101906101519190611e20565b610412565b6040516101639190611e68565b60405180910390f35b6101746104f4565b6040516101819190611e9c565b60405180910390f35b6101926104fa565b60405161019f9190611f50565b60405180910390f35b6101c260048036038101906101bd9190611f9e565b61058c565b6040516101cf919061200c565b60405180910390f35b6101f260048036038101906101ed9190612053565b610611565b005b61020e60048036038101906102099190612093565b610728565b005b610218610788565b6040516102259190611e9c565b60405180910390f35b610236610792565b6040516102439190611e9c565b60405180910390f35b61026660048036038101906102619190612093565b610798565b005b610282600480360381019061027d9190611f9e565b6107b8565b60405161028f919061200c565b60405180910390f35b6102a0610869565b6040516102ad9190611e9c565b60405180910390f35b6102d060048036038101906102cb91906120e6565b61086f565b6040516102dd9190611e9c565b60405180910390f35b6102ee610926565b005b6102f86109ab565b604051610305919061221f565b60405180910390f35b610316610b1f565b6040516103239190611f50565b60405180910390f35b6103466004803603810190610341919061226d565b610bb1565b005b610362600480360381019061035d91906123e2565b610bc7565b005b61037e60048036038101906103799190611f9e565b610c29565b60405161038b9190611f50565b60405180910390f35b61039c610d7a565b6040516103a99190611f50565b60405180910390f35b6103cc60048036038101906103c79190612506565b610e08565b6040516103d99190611e9c565b60405180910390f35b6103fc60048036038101906103f79190612562565b610ea4565b6040516104099190611e68565b60405180910390f35b60007f80ac58cd000000000000000000000000000000000000000000000000000000007bffffffffffffffffffffffffffffffffffffffffffffffffffffffff1916827bffffffffffffffffffffffffffffffffffffffffffffffffffffffff191614806104dd57507f5b5e139f000000000000000000000000000000000000000000000000000000007bffffffffffffffffffffffffffffffffffffffffffffffffffffffff1916827bffffffffffffffffffffffffffffffffffffffffffffffffffffffff1916145b806104ed57506104ec82610f38565b5b9050919050565b600a5481565b606060008054610509906125d1565b80601f0160208091040260200160405190810160405280929190818152602001828054610535906125d1565b80156105825780601f1061055757610100808354040283529160200191610582565b820191906000526020600020905b81548152906001019060200180831161056557829003601f168201915b5050505050905090565b600061059782610fa2565b6105d6576040517f08c379a00000000000000000000000000000000000000000000000000000000081526004016105cd90612674565b60405180910390fd5b6004600083815260200190815260200160002060009054906101000a900473ffffffffffffffffffffffffffffffffffffffff169050919050565b600061061c826107b8565b90508073ffffffffffffffffffffffffffffffffffffffff168373ffffffffffffffffffffffffffffffffffffffff160361068c576040517f08c379a000000000000000000000000000000000000000000000000000000000815260040161068390612706565b60405180910390fd5b8073ffffffffffffffffffffffffffffffffffffffff166106ab61100e565b73ffffffffffffffffffffffffffffffffffffffff1614806106da57506106d9816106d461100e565b610ea4565b5b610719576040517f08c379a000000000000000000000000000000000000000000000000000000000815260040161071090612798565b60405180910390fd5b6107238383611016565b505050565b61073961073361100e565b826110cf565b610778576040517f08c379a000000000000000000000000000000000000000000000000000000000815260040161076f9061282a565b60405180910390fd5b6107838383836111ad565b505050565b6000600d54905090565b600b5481565b6107b383838360405180602001604052806000815250610bc7565b505050565b6000806002600084815260200190815260200160002060009054906101000a900473ffffffffffffffffffffffffffffffffffffffff169050600073ffffffffffffffffffffffffffffffffffffffff168173ffffffffffffffffffffffffffffffffffffffff1603610860576040517f08c379a0000000000000000000000000000000000000000000000000000000008152600401610857906128bc565b60405180910390fd5b80915050919050565b60075481565b60008073ffffffffffffffffffffffffffffffffffffffff168273ffffffffffffffffffffffffffffffffffffffff16036108df576040517f08c379a00000000000000000000000000000000000000000000000000000000081526004016108d69061294e565b60405180910390fd5b600360008373ffffffffffffffffffffffffffffffffffffffff1673ffffffffffffffffffffffffffffffffffffffff168152602001908152602001600020549050919050565b60005b60001515811515036109a857600a61093f611413565b610949919061299d565b600d81905550600a600b54111561096f576000600b8190555061096a61144f565b6109a3565b6000151560086000600d54815260200190815260200160002060009054906101000a900460ff161515036109a257600190505b5b610929565b50565b60606000600b5467ffffffffffffffff8111156109cb576109ca6122b7565b5b6040519080825280602002602001820160405280156109fe57816020015b60608152602001906001900390816109e95790505b5090506000805b600a811015610b1657600115156008600083815260200190815260200160002060009054906101000a900460ff16151503610b0357600960008281526020019081526020016000208054610a58906125d1565b80601f0160208091040260200160405190810160405280929190818152602001828054610a84906125d1565b8015610ad15780601f10610aa657610100808354040283529160200191610ad1565b820191906000526020600020905b815481529060010190602001808311610ab457829003601f168201915b5050505050838381518110610ae957610ae86129ce565b5b60200260200101819052508180610aff90612a2c565b9250505b8080610b0e90612a2c565b915050610a05565b50819250505090565b606060018054610b2e906125d1565b80601f0160208091040260200160405190810160405280929190818152602001828054610b5a906125d1565b8015610ba75780601f10610b7c57610100808354040283529160200191610ba7565b820191906000526020600020905b815481529060010190602001808311610b8a57829003601f168201915b5050505050905090565b610bc3610bbc61100e565b838361149d565b5050565b610bd8610bd261100e565b836110cf565b610c17576040517f08c379a0000000000000000000000000000000000000000000000000000000008152600401610c0e9061282a565b60405180910390fd5b610c2384848484611609565b50505050565b6060610c3482610fa2565b610c73576040517f08c379a0000000000000000000000000000000000000000000000000000000008152600401610c6a90612ae6565b60405180910390fd5b6000600660008481526020019081526020016000208054610c93906125d1565b80601f0160208091040260200160405190810160405280929190818152602001828054610cbf906125d1565b8015610d0c5780601f10610ce157610100808354040283529160200191610d0c565b820191906000526020600020905b815481529060010190602001808311610cef57829003601f168201915b505050505090506000610d1d611665565b90506000815103610d32578192505050610d75565b600082511115610d67578082604051602001610d4f929190612b42565b60405160208183030381529060405292505050610d75565b610d708461167c565b925050505b919050565b600c8054610d87906125d1565b80601f0160208091040260200160405190810160405280929190818152602001828054610db3906125d1565b8015610e005780601f10610dd557610100808354040283529160200191610e00565b820191906000526020600020905b815481529060010190602001808311610de357829003601f168201915b505050505081565b60006001600b6000828254610e1d9190612b66565b9250508190555060096000600d548152602001908152602001600020600c908054610e47906125d1565b610e52929190611c84565b50600160086000600d54815260200190815260200160002060006101000a81548160ff021916908315150217905550610e8d83600d54611723565b610e99600d54836118fc565b600d54905092915050565b6000600560008473ffffffffffffffffffffffffffffffffffffffff1673ffffffffffffffffffffffffffffffffffffffff16815260200190815260200160002060008373ffffffffffffffffffffffffffffffffffffffff1673ffffffffffffffffffffffffffffffffffffffff16815260200190815260200160002060009054906101000a900460ff16905092915050565b60007f01ffc9a7000000000000000000000000000000000000000000000000000000007bffffffffffffffffffffffffffffffffffffffffffffffffffffffff1916827bffffffffffffffffffffffffffffffffffffffffffffffffffffffff1916149050919050565b60008073ffffffffffffffffffffffffffffffffffffffff166002600084815260200190815260200160002060009054906101000a900473ffffffffffffffffffffffffffffffffffffffff1673ffffffffffffffffffffffffffffffffffffffff1614159050919050565b600033905090565b816004600083815260200190815260200160002060006101000a81548173ffffffffffffffffffffffffffffffffffffffff021916908373ffffffffffffffffffffffffffffffffffffffff160217905550808273ffffffffffffffffffffffffffffffffffffffff16611089836107b8565b73ffffffffffffffffffffffffffffffffffffffff167f8c5be1e5ebec7d5bd14f71427d1e84f3dd0314c0f7b2291e5b200ac8c7c3b92560405160405180910390a45050565b60006110da82610fa2565b611119576040517f08c379a000000000000000000000000000000000000000000000000000000000815260040161111090612c2e565b60405180910390fd5b6000611124836107b8565b90508073ffffffffffffffffffffffffffffffffffffffff168473ffffffffffffffffffffffffffffffffffffffff16148061116657506111658185610ea4565b5b806111a457508373ffffffffffffffffffffffffffffffffffffffff1661118c8461058c565b73ffffffffffffffffffffffffffffffffffffffff16145b91505092915050565b8273ffffffffffffffffffffffffffffffffffffffff166111cd826107b8565b73ffffffffffffffffffffffffffffffffffffffff1614611223576040517f08c379a000000000000000000000000000000000000000000000000000000000815260040161121a90612cc0565b60405180910390fd5b600073ffffffffffffffffffffffffffffffffffffffff168273ffffffffffffffffffffffffffffffffffffffff1603611292576040517f08c379a000000000000000000000000000000000000000000000000000000000815260040161128990612d52565b60405180910390fd5b61129d838383611970565b6112a8600082611016565b6001600360008573ffffffffffffffffffffffffffffffffffffffff1673ffffffffffffffffffffffffffffffffffffffff16815260200190815260200160002060008282546112f89190612d72565b925050819055506001600360008473ffffffffffffffffffffffffffffffffffffffff1673ffffffffffffffffffffffffffffffffffffffff168152602001908152602001600020600082825461134f9190612b66565b92505081905550816002600083815260200190815260200160002060006101000a81548173ffffffffffffffffffffffffffffffffffffffff021916908373ffffffffffffffffffffffffffffffffffffffff160217905550808273ffffffffffffffffffffffffffffffffffffffff168473ffffffffffffffffffffffffffffffffffffffff167fddf252ad1be2c89b69c2b068fc378daa952ba7f163c4a11628f55a4df523b3ef60405160405180910390a461140e838383611975565b505050565b600044426114219190612b66565b6040516020016114319190612dc7565b6040516020818303038152906040528051906020012060001c905090565b60005b600a81101561149a5760006008600083815260200190815260200160002060006101000a81548160ff021916908315150217905550808061149290612a2c565b915050611452565b50565b8173ffffffffffffffffffffffffffffffffffffffff168373ffffffffffffffffffffffffffffffffffffffff160361150b576040517f08c379a000000000000000000000000000000000000000000000000000000000815260040161150290612e2e565b60405180910390fd5b80600560008573ffffffffffffffffffffffffffffffffffffffff1673ffffffffffffffffffffffffffffffffffffffff16815260200190815260200160002060008473ffffffffffffffffffffffffffffffffffffffff1673ffffffffffffffffffffffffffffffffffffffff16815260200190815260200160002060006101000a81548160ff0219169083151502179055508173ffffffffffffffffffffffffffffffffffffffff168373ffffffffffffffffffffffffffffffffffffffff167f17307eab39ab6107e8899845ad3d59bd9653f200f220920489ca2b5937696c31836040516115fc9190611e68565b60405180910390a3505050565b6116148484846111ad565b6116208484848461197a565b61165f576040517f08c379a000000000000000000000000000000000000000000000000000000000815260040161165690612ec0565b60405180910390fd5b50505050565b606060405180602001604052806000815250905090565b606061168782610fa2565b6116c6576040517f08c379a00000000000000000000000000000000000000000000000000000000081526004016116bd90612f52565b60405180910390fd5b60006116d0611665565b905060008151116116f0576040518060200160405280600081525061171b565b806116fa84611b01565b60405160200161170b929190612b42565b6040516020818303038152906040525b915050919050565b600073ffffffffffffffffffffffffffffffffffffffff168273ffffffffffffffffffffffffffffffffffffffff1603611792576040517f08c379a000000000000000000000000000000000000000000000000000000000815260040161178990612fbe565b60405180910390fd5b61179b81610fa2565b156117db576040517f08c379a00000000000000000000000000000000000000000000000000000000081526004016117d29061302a565b60405180910390fd5b6117e760008383611970565b6001600360008473ffffffffffffffffffffffffffffffffffffffff1673ffffffffffffffffffffffffffffffffffffffff16815260200190815260200160002060008282546118379190612b66565b92505081905550816002600083815260200190815260200160002060006101000a81548173ffffffffffffffffffffffffffffffffffffffff021916908373ffffffffffffffffffffffffffffffffffffffff160217905550808273ffffffffffffffffffffffffffffffffffffffff16600073ffffffffffffffffffffffffffffffffffffffff167fddf252ad1be2c89b69c2b068fc378daa952ba7f163c4a11628f55a4df523b3ef60405160405180910390a46118f860008383611975565b5050565b61190582610fa2565b611944576040517f08c379a000000000000000000000000000000000000000000000000000000000815260040161193b906130bc565b60405180910390fd5b8060066000848152602001908152602001600020908051906020019061196b929190611d11565b505050565b505050565b505050565b600061199b8473ffffffffffffffffffffffffffffffffffffffff16611c61565b15611af4578373ffffffffffffffffffffffffffffffffffffffff1663150b7a026119c461100e565b8786866040518563ffffffff1660e01b81526004016119e69493929190613131565b6020604051808303816000875af1925050508015611a2257506040513d601f19601f82011682018060405250810190611a1f9190613192565b60015b611aa4573d8060008114611a52576040519150601f19603f3d011682016040523d82523d6000602084013e611a57565b606091505b506000815103611a9c576040517f08c379a0000000000000000000000000000000000000000000000000000000008152600401611a9390612ec0565b60405180910390fd5b805181602001fd5b63150b7a0260e01b7bffffffffffffffffffffffffffffffffffffffffffffffffffffffff1916817bffffffffffffffffffffffffffffffffffffffffffffffffffffffff191614915050611af9565b600190505b949350505050565b606060008203611b48576040518060400160405280600181526020017f30000000000000000000000000000000000000000000000000000000000000008152509050611c5c565b600082905060005b60008214611b7a578080611b6390612a2c565b915050600a82611b7391906131bf565b9150611b50565b60008167ffffffffffffffff811115611b9657611b956122b7565b5b6040519080825280601f01601f191660200182016040528015611bc85781602001600182028036833780820191505090505b5090505b60008514611c5557600182611be19190612d72565b9150600a85611bf0919061299d565b6030611bfc9190612b66565b60f81b818381518110611c1257611c116129ce565b5b60200101907effffffffffffffffffffffffffffffffffffffffffffffffffffffffffffff1916908160001a905350600a85611c4e91906131bf565b9450611bcc565b8093505050505b919050565b6000808273ffffffffffffffffffffffffffffffffffffffff163b119050919050565b828054611c90906125d1565b90600052602060002090601f016020900481019282611cb25760008555611d00565b82601f10611cc35780548555611d00565b82800160010185558215611d0057600052602060002091601f016020900482015b82811115611cff578254825591600101919060010190611ce4565b5b509050611d0d9190611d97565b5090565b828054611d1d906125d1565b90600052602060002090601f016020900481019282611d3f5760008555611d86565b82601f10611d5857805160ff1916838001178555611d86565b82800160010185558215611d86579182015b82811115611d85578251825591602001919060010190611d6a565b5b509050611d939190611d97565b5090565b5b80821115611db0576000816000905550600101611d98565b5090565b6000604051905090565b600080fd5b600080fd5b60007fffffffff0000000000000000000000000000000000000000000000000000000082169050919050565b611dfd81611dc8565b8114611e0857600080fd5b50565b600081359050611e1a81611df4565b92915050565b600060208284031215611e3657611e35611dbe565b5b6000611e4484828501611e0b565b91505092915050565b60008115159050919050565b611e6281611e4d565b82525050565b6000602082019050611e7d6000830184611e59565b92915050565b6000819050919050565b611e9681611e83565b82525050565b6000602082019050611eb16000830184611e8d565b92915050565b600081519050919050565b600082825260208201905092915050565b60005b83811015611ef1578082015181840152602081019050611ed6565b83811115611f00576000848401525b50505050565b6000601f19601f8301169050919050565b6000611f2282611eb7565b611f2c8185611ec2565b9350611f3c818560208601611ed3565b611f4581611f06565b840191505092915050565b60006020820190508181036000830152611f6a8184611f17565b905092915050565b611f7b81611e83565b8114611f8657600080fd5b50565b600081359050611f9881611f72565b92915050565b600060208284031215611fb457611fb3611dbe565b5b6000611fc284828501611f89565b91505092915050565b600073ffffffffffffffffffffffffffffffffffffffff82169050919050565b6000611ff682611fcb565b9050919050565b61200681611feb565b82525050565b60006020820190506120216000830184611ffd565b92915050565b61203081611feb565b811461203b57600080fd5b50565b60008135905061204d81612027565b92915050565b6000806040838503121561206a57612069611dbe565b5b60006120788582860161203e565b925050602061208985828601611f89565b9150509250929050565b6000806000606084860312156120ac576120ab611dbe565b5b60006120ba8682870161203e565b93505060206120cb8682870161203e565b92505060406120dc86828701611f89565b9150509250925092565b6000602082840312156120fc576120fb611dbe565b5b600061210a8482850161203e565b91505092915050565b600081519050919050565b600082825260208201905092915050565b6000819050602082019050919050565b600082825260208201905092915050565b600061215b82611eb7565b612165818561213f565b9350612175818560208601611ed3565b61217e81611f06565b840191505092915050565b60006121958383612150565b905092915050565b6000602082019050919050565b60006121b582612113565b6121bf818561211e565b9350836020820285016121d18561212f565b8060005b8581101561220d57848403895281516121ee8582612189565b94506121f98361219d565b925060208a019950506001810190506121d5565b50829750879550505050505092915050565b6000602082019050818103600083015261223981846121aa565b905092915050565b61224a81611e4d565b811461225557600080fd5b50565b60008135905061226781612241565b92915050565b6000806040838503121561228457612283611dbe565b5b60006122928582860161203e565b92505060206122a385828601612258565b9150509250929050565b600080fd5b600080fd5b7f4e487b7100000000000000000000000000000000000000000000000000000000600052604160045260246000fd5b6122ef82611f06565b810181811067ffffffffffffffff8211171561230e5761230d6122b7565b5b80604052505050565b6000612321611db4565b905061232d82826122e6565b919050565b600067ffffffffffffffff82111561234d5761234c6122b7565b5b61235682611f06565b9050602081019050919050565b82818337600083830152505050565b600061238561238084612332565b612317565b9050828152602081018484840111156123a1576123a06122b2565b5b6123ac848285612363565b509392505050565b600082601f8301126123c9576123c86122ad565b5b81356123d9848260208601612372565b91505092915050565b600080600080608085870312156123fc576123fb611dbe565b5b600061240a8782880161203e565b945050602061241b8782880161203e565b935050604061242c87828801611f89565b925050606085013567ffffffffffffffff81111561244d5761244c611dc3565b5b612459878288016123b4565b91505092959194509250565b600067ffffffffffffffff8211156124805761247f6122b7565b5b61248982611f06565b9050602081019050919050565b60006124a96124a484612465565b612317565b9050828152602081018484840111156124c5576124c46122b2565b5b6124d0848285612363565b509392505050565b600082601f8301126124ed576124ec6122ad565b5b81356124fd848260208601612496565b91505092915050565b6000806040838503121561251d5761251c611dbe565b5b600061252b8582860161203e565b925050602083013567ffffffffffffffff81111561254c5761254b611dc3565b5b612558858286016124d8565b9150509250929050565b6000806040838503121561257957612578611dbe565b5b60006125878582860161203e565b92505060206125988582860161203e565b9150509250929050565b7f4e487b7100000000000000000000000000000000000000000000000000000000600052602260045260246000fd5b600060028204905060018216806125e957607f821691505b6020821081036125fc576125fb6125a2565b5b50919050565b7f4552433732313a20617070726f76656420717565727920666f72206e6f6e657860008201527f697374656e7420746f6b656e0000000000000000000000000000000000000000602082015250565b600061265e602c83611ec2565b915061266982612602565b604082019050919050565b6000602082019050818103600083015261268d81612651565b9050919050565b7f4552433732313a20617070726f76616c20746f2063757272656e74206f776e6560008201527f7200000000000000000000000000000000000000000000000000000000000000602082015250565b60006126f0602183611ec2565b91506126fb82612694565b604082019050919050565b6000602082019050818103600083015261271f816126e3565b9050919050565b7f4552433732313a20617070726f76652063616c6c6572206973206e6f74206f7760008201527f6e6572206e6f7220617070726f76656420666f7220616c6c0000000000000000602082015250565b6000612782603883611ec2565b915061278d82612726565b604082019050919050565b600060208201905081810360008301526127b181612775565b9050919050565b7f4552433732313a207472616e736665722063616c6c6572206973206e6f74206f60008201527f776e6572206e6f7220617070726f766564000000000000000000000000000000602082015250565b6000612814603183611ec2565b915061281f826127b8565b604082019050919050565b6000602082019050818103600083015261284381612807565b9050919050565b7f4552433732313a206f776e657220717565727920666f72206e6f6e657869737460008201527f656e7420746f6b656e0000000000000000000000000000000000000000000000602082015250565b60006128a6602983611ec2565b91506128b18261284a565b604082019050919050565b600060208201905081810360008301526128d581612899565b9050919050565b7f4552433732313a2062616c616e636520717565727920666f7220746865207a6560008201527f726f206164647265737300000000000000000000000000000000000000000000602082015250565b6000612938602a83611ec2565b9150612943826128dc565b604082019050919050565b600060208201905081810360008301526129678161292b565b9050919050565b7f4e487b7100000000000000000000000000000000000000000000000000000000600052601260045260246000fd5b60006129a882611e83565b91506129b383611e83565b9250826129c3576129c261296e565b5b828206905092915050565b7f4e487b7100000000000000000000000000000000000000000000000000000000600052603260045260246000fd5b7f4e487b7100000000000000000000000000000000000000000000000000000000600052601160045260246000fd5b6000612a3782611e83565b91507fffffffffffffffffffffffffffffffffffffffffffffffffffffffffffffffff8203612a6957612a686129fd565b5b600182019050919050565b7f45524337323155524953746f726167653a2055524920717565727920666f722060008201527f6e6f6e6578697374656e7420746f6b656e000000000000000000000000000000602082015250565b6000612ad0603183611ec2565b9150612adb82612a74565b604082019050919050565b60006020820190508181036000830152612aff81612ac3565b9050919050565b600081905092915050565b6000612b1c82611eb7565b612b268185612b06565b9350612b36818560208601611ed3565b80840191505092915050565b6000612b4e8285612b11565b9150612b5a8284612b11565b91508190509392505050565b6000612b7182611e83565b9150612b7c83611e83565b9250827fffffffffffffffffffffffffffffffffffffffffffffffffffffffffffffffff03821115612bb157612bb06129fd565b5b828201905092915050565b7f4552433732313a206f70657261746f7220717565727920666f72206e6f6e657860008201527f697374656e7420746f6b656e0000000000000000000000000000000000000000602082015250565b6000612c18602c83611ec2565b9150612c2382612bbc565b604082019050919050565b60006020820190508181036000830152612c4781612c0b565b9050919050565b7f4552433732313a207472616e736665722066726f6d20696e636f72726563742060008201527f6f776e6572000000000000000000000000000000000000000000000000000000602082015250565b6000612caa602583611ec2565b9150612cb582612c4e565b604082019050919050565b60006020820190508181036000830152612cd981612c9d565b9050919050565b7f4552433732313a207472616e7366657220746f20746865207a65726f2061646460008201527f7265737300000000000000000000000000000000000000000000000000000000602082015250565b6000612d3c602483611ec2565b9150612d4782612ce0565b604082019050919050565b60006020820190508181036000830152612d6b81612d2f565b9050919050565b6000612d7d82611e83565b9150612d8883611e83565b925082821015612d9b57612d9a6129fd565b5b828203905092915050565b6000819050919050565b612dc1612dbc82611e83565b612da6565b82525050565b6000612dd38284612db0565b60208201915081905092915050565b7f4552433732313a20617070726f766520746f2063616c6c657200000000000000600082015250565b6000612e18601983611ec2565b9150612e2382612de2565b602082019050919050565b60006020820190508181036000830152612e4781612e0b565b9050919050565b7f4552433732313a207472616e7366657220746f206e6f6e20455243373231526560008201527f63656976657220696d706c656d656e7465720000000000000000000000000000602082015250565b6000612eaa603283611ec2565b9150612eb582612e4e565b604082019050919050565b60006020820190508181036000830152612ed981612e9d565b9050919050565b7f4552433732314d657461646174613a2055524920717565727920666f72206e6f60008201527f6e6578697374656e7420746f6b656e0000000000000000000000000000000000602082015250565b6000612f3c602f83611ec2565b9150612f4782612ee0565b604082019050919050565b60006020820190508181036000830152612f6b81612f2f565b9050919050565b7f4552433732313a206d696e7420746f20746865207a65726f2061646472657373600082015250565b6000612fa8602083611ec2565b9150612fb382612f72565b602082019050919050565b60006020820190508181036000830152612fd781612f9b565b9050919050565b7f4552433732313a20746f6b656e20616c7265616479206d696e74656400000000600082015250565b6000613014601c83611ec2565b915061301f82612fde565b602082019050919050565b6000602082019050818103600083015261304381613007565b9050919050565b7f45524337323155524953746f726167653a2055524920736574206f66206e6f6e60008201527f6578697374656e7420746f6b656e000000000000000000000000000000000000602082015250565b60006130a6602e83611ec2565b91506130b18261304a565b604082019050919050565b600060208201905081810360008301526130d581613099565b9050919050565b600081519050919050565b600082825260208201905092915050565b6000613103826130dc565b61310d81856130e7565b935061311d818560208601611ed3565b61312681611f06565b840191505092915050565b60006080820190506131466000830187611ffd565b6131536020830186611ffd565b6131606040830185611e8d565b818103606083015261317281846130f8565b905095945050505050565b60008151905061318c81611df4565b92915050565b6000602082840312156131a8576131a7611dbe565b5b60006131b68482850161317d565b91505092915050565b60006131ca82611e83565b91506131d583611e83565b9250826131e5576131e461296e565b5b82820490509291505056fea2646970667358221220ef21e8992c941e12290df8f4ead2cf66b8ae1ebd0e499b2c2a6662848879d18564736f6c634300080e0033",
  "immutableReferences": {},
  "source": "// SPDX-License-Identifier: MIT\npragma solidity >=0.4.22 <0.9.0;\n\nimport \"@openzeppelin/contracts/token/ERC721/extensions/ERC721URIStorage.sol\"; //NFT Smart Contract Standard\n\ncontract NFTMint is ERC721URIStorage {\n    uint public mintPrice = 0.5 ether; //price of NFT\n    mapping (uint => bool) visited; //to store whether a color has been issued or not\n    mapping (uint => string) colors; //to store the color of the NFT\n    uint public maximumSupply; //total number of NFTs permissible by this contract\n    uint public currentTotal; //current number of tokens in our chain\n    string public color; //to output the color\n    uint private mintIndex; //the serial number used for minting\n    event ProvideIndex(uint index);\n\n    constructor() ERC721(\"ColoredToken\",\"CTK\"){\n        //the default constructor of the ERC721 smart contract\n        color = \"NIL\";\n        currentTotal = 0;\n        maximumSupply = 10; //10 colors possible for our NFT\n        mintIndex = 0;\n\n        //init for colors\n        string[10] memory COLORS = [\"red\", \"blue\", \"green\", \"purple\", \"yellow\", \"orange\", \"pink\", \"black\", \"white\", \"brown\"];\n        for(uint i = 0; i<10; i++){\n            colors[i] = COLORS[i];\n        }\n\n        //init for visited\n        for(uint i=0; i<10; i++){\n            visited[i] = false;\n        }\n    }\n    \n    function getMintIndex() public view returns (uint){\n        return mintIndex;\n    }\n\n    function random() private view returns (uint){\n        return uint(keccak256(abi.encodePacked(block.timestamp+block.difficulty)));\n    }\n\n    function generateMintIndex() public{\n        bool flag = false;\n        while(flag==false){ //loop to generate mintIndex\n            mintIndex = random() % 10; //generating a random number between 0 and 9\n            if(currentTotal>10){\n                currentTotal = 0;\n                reset();\n            }\n            else if(visited[mintIndex]==false) flag = true;\n        }\n    }\n\n    function reset() private {\n        for(uint i=0; i<10; i++){\n            visited[i] = false;\n        }\n    }\n\n    function getUsedNFTColors() public view returns (string[] memory){\n        string[] memory generated = new string[](currentTotal);\n        uint j = 0;\n        for(uint i=0;i<10;i++){\n            if(visited[i]==true){\n                generated[j] = colors[i];\n                j++;\n            }\n        }\n        return generated;\n    }\n\n    function mint(address user, string memory _uri) public returns (uint){\n        //the minting function\n        currentTotal += 1;\n        color = colors[mintIndex];\n        visited[mintIndex] = true;\n        _mint(user, mintIndex); //calling the mint function in the ERC721 Standard to mint the NFT using the serial number\n        _setTokenURI(mintIndex,_uri); //store the metadata in the block\n        return mintIndex;\n    }\n}",
  "sourcePath": "/Users/premrajendran/Desktop/NFTApp/contracts/NFTMint.sol",
  "compiler": {
    "name": "solc",
    "version": "0.8.14+commit.80d49f37.Emscripten.clang"
  },
  "schemaVersion": "3.4.7",
  "updatedAt": "2022-06-08T06:35:52.486Z",
  "networkType": "ethereum",
  "devdoc": {
    "kind": "dev",
    "methods": {
      "approve(address,uint256)": {
        "details": "See {IERC721-approve}."
      },
      "balanceOf(address)": {
        "details": "See {IERC721-balanceOf}."
      },
      "getApproved(uint256)": {
        "details": "See {IERC721-getApproved}."
      },
      "isApprovedForAll(address,address)": {
        "details": "See {IERC721-isApprovedForAll}."
      },
      "name()": {
        "details": "See {IERC721Metadata-name}."
      },
      "ownerOf(uint256)": {
        "details": "See {IERC721-ownerOf}."
      },
      "safeTransferFrom(address,address,uint256)": {
        "details": "See {IERC721-safeTransferFrom}."
      },
      "safeTransferFrom(address,address,uint256,bytes)": {
        "details": "See {IERC721-safeTransferFrom}."
      },
      "setApprovalForAll(address,bool)": {
        "details": "See {IERC721-setApprovalForAll}."
      },
      "supportsInterface(bytes4)": {
        "details": "See {IERC165-supportsInterface}."
      },
      "symbol()": {
        "details": "See {IERC721Metadata-symbol}."
      },
      "tokenURI(uint256)": {
        "details": "See {IERC721Metadata-tokenURI}."
      },
      "transferFrom(address,address,uint256)": {
        "details": "See {IERC721-transferFrom}."
      }
    },
    "version": 1
  },
  "userdoc": {
    "kind": "user",
    "methods": {},
    "version": 1
  }
}